{
  "contractName": "Deadlines",
  "abi": [
    {
      "constant": true,
      "inputs": [],
      "name": "deadline",
      "outputs": [
        {
          "name": "",
          "type": "uint256"
        }
      ],
      "payable": false,
      "stateMutability": "view",
      "type": "function"
    }
  ],
  "bytecode": "0x6080604052348015600f57600080fd5b50609e8061001e6000396000f300608060405260043610603f576000357c0100000000000000000000000000000000000000000000000000000000900463ffffffff16806329dcb0cf146044575b600080fd5b348015604f57600080fd5b506056606c565b6040518082815260200191505060405180910390f35b600054815600a165627a7a72305820cbd73a6975d2979d2969714e8eb4d3d533caddd1f0f3ca2e83b51ad1eb73f1c70029",
  "source": "pragma solidity ^0.4.21;\n\ncontract Deadlines {\n\n    uint256 public deadline;\n\n    modifier onlyWhileOpen {\n        require(block.timestamp <= deadline);\n        _;\n    }\n\n    modifier onlyWhileClosed {\n        require(block.timestamp > deadline);\n        _;\n    }\n}\n",
  "sourcePath": "/Users/jaesonbooker/Downloads/OmegaCoordinate-master/contracts/Deadlines.sol",
  "compiler": {
    "name": "solc",
    "version": "0.4.24+commit.e67f0147.Emscripten.clang"
  },
  "schemaVersion": "2.0.1",
  "updatedAt": "2018-10-18T22:16:44.872Z"
}